{"abi":[{"type":"constructor","inputs":[{"name":"_usdcAddress","type":"address","internalType":"address"},{"name":"_aUsdcAddress","type":"address","internalType":"address"},{"name":"_saveTokenAddress","type":"address","internalType":"address"},{"name":"_aavePoolAddress","type":"address","internalType":"address"},{"name":"_swapRouter02Address","type":"address","internalType":"address"}],"stateMutability":"nonpayable"},{"type":"function","name":"deposit","inputs":[{"name":"minAmountOut","type":"uint256","internalType":"uint256"}],"outputs":[],"stateMutability":"nonpayable"},{"type":"function","name":"earlyWithdraw","inputs":[{"name":"minAmountOut","type":"uint256","internalType":"uint256"}],"outputs":[],"stateMutability":"nonpayable"},{"type":"function","name":"getDepositPlan","inputs":[{"name":"user","type":"address","internalType":"address"}],"outputs":[{"name":"","type":"tuple","internalType":"struct SaveFi.DepositPlan","components":[{"name":"isWithdrawn","type":"bool","internalType":"bool"},{"name":"isStarted","type":"bool","internalType":"bool"},{"name":"depositContract","type":"address","internalType":"contract DepositContract"},{"name":"amountPerDeposit","type":"uint256","internalType":"uint256"},{"name":"depositEndTime","type":"uint256","internalType":"uint256"},{"name":"nextDepositDeadline","type":"uint256","internalType":"uint256"}]}],"stateMutability":"view"},{"type":"function","name":"owner","inputs":[],"outputs":[{"name":"","type":"address","internalType":"address"}],"stateMutability":"view"},{"type":"function","name":"renounceOwnership","inputs":[],"outputs":[],"stateMutability":"nonpayable"},{"type":"function","name":"startDeposit","inputs":[{"name":"amountPerDeposit","type":"uint256","internalType":"uint256"},{"name":"totalDepositDays","type":"uint256","internalType":"uint256"}],"outputs":[],"stateMutability":"nonpayable"},{"type":"function","name":"transferOwnership","inputs":[{"name":"newOwner","type":"address","internalType":"address"}],"outputs":[],"stateMutability":"nonpayable"},{"type":"function","name":"withdraw","inputs":[{"name":"minAmountOut","type":"uint256","internalType":"uint256"}],"outputs":[],"stateMutability":"nonpayable"},{"type":"event","name":"DepositPlanStarted","inputs":[{"name":"user","type":"address","indexed":true,"internalType":"address"},{"name":"depositContract","type":"address","indexed":false,"internalType":"address"},{"name":"amountPerDeposit","type":"uint256","indexed":false,"internalType":"uint256"},{"name":"depositEndTime","type":"uint256","indexed":false,"internalType":"uint256"},{"name":"nextDepositDeadline","type":"uint256","indexed":false,"internalType":"uint256"}],"anonymous":false},{"type":"event","name":"Deposited","inputs":[{"name":"user","type":"address","indexed":true,"internalType":"address"},{"name":"amount","type":"uint256","indexed":false,"internalType":"uint256"},{"name":"nextDepositDeadline","type":"uint256","indexed":false,"internalType":"uint256"},{"name":"onTime","type":"bool","indexed":false,"internalType":"bool"}],"anonymous":false},{"type":"event","name":"OwnershipTransferred","inputs":[{"name":"previousOwner","type":"address","indexed":true,"internalType":"address"},{"name":"newOwner","type":"address","indexed":true,"internalType":"address"}],"anonymous":false},{"type":"event","name":"Withdrawn","inputs":[{"name":"user","type":"address","indexed":true,"internalType":"address"},{"name":"amount","type":"uint256","indexed":false,"internalType":"uint256"},{"name":"early","type":"bool","indexed":false,"internalType":"bool"}],"anonymous":false},{"type":"error","name":"OwnableInvalidOwner","inputs":[{"name":"owner","type":"address","internalType":"address"}]},{"type":"error","name":"OwnableUnauthorizedAccount","inputs":[{"name":"account","type":"address","internalType":"address"}]},{"type":"error","name":"SaveFi__AlreadyStarted","inputs":[]},{"type":"error","name":"SaveFi__AlreadyWithdrawn","inputs":[]},{"type":"error","name":"SaveFi__DepositAmountShouldBeGreaterThanZero","inputs":[]},{"type":"error","name":"SaveFi__InsufficientAllowance","inputs":[]},{"type":"error","name":"SaveFi__NotStarted","inputs":[]},{"type":"error","name":"SaveFi__TooEarlyToDeposit","inputs":[]},{"type":"error","name":"SaveFi__TooEarlyToWithdraw","inputs":[]},{"type":"error","name":"SaveFi__TotalDepositDaysShouldBeGreaterThanZero","inputs":[]}],"bytecode":{"object":"0x6101203461013c57601f6121d838819003918201601f19168301916001600160401b038311848410176101405780849260a09460405283398101031261013c5761004881610154565b9061005560208201610154565b9061006260408201610154565b61007a608061007360608501610154565b9301610154565b923315610129575f8054336001600160a01b0319821681178355604051979290916001600160a01b0316907f8be0079c531659141344cd1fd0a4f28419497f9722a3daafe3b4186f6b6457e09080a36001600160a01b0390811660805290811660a0521660c05260e0526101005261206f9081610169823960805181818161018d01526107af015260a05181610849015260c05181610871015260e05181610899015261010051816108c10152f35b631e4fbdf760e01b5f525f60045260245ffd5b5f80fd5b634e487b7160e01b5f52604160045260245ffd5b51906001600160a01b038216820361013c5756fe6080806040526004361015610012575f80fd5b5f905f3560e01c9081632e1a7d4d14610b99575080635c85ef65146107685780636b5b969614610658578063715018a6146105fe5780638b752fdb1461050d5780638da5cb5b146104e6578063b6b55f25146101045763f2fde38b14610076575f80fd5b34610101576020366003190112610101576004356001600160a01b038116908190036100ff576100a4610d41565b80156100eb5781546001600160a01b03198116821783556001600160a01b03167f8be0079c531659141344cd1fd0a4f28419497f9722a3daafe3b4186f6b6457e08380a380f35b631e4fbdf760e01b82526004829052602482fd5b505b80fd5b50346101015760203660031901126101015760043590338152600160205260ff6040822054166104d757338152600160205260ff604082205460081c16156104c8573381526001602052604081206003015462278cff1981019081116104b45742106104a557604051636eb1769f60e11b81523360048201523060248201526001600160a01b037f0000000000000000000000000000000000000000000000000000000000000000169290602081604481875afa90811561044157839161046f575b5033835260016020526001604084200154116104605733825260016020526003604083200180549062278d00820180921161044c575533808352600160208181526040808620548487528383528187209093015490516323b872dd60e01b8152600481019490945260109290921c6001600160a01b031660248401526044830191909152929384939082908186816064810103925af1801561044157610414575b5033825260016020526040822060030154421015610352573382526001602052604082205460101c6001600160a01b031690813b1561034e57829160448392604051948593849263b3950de160e01b84526001600485015260248401525af180156103435761032e575b505033815260016020526001604082200154338252600160205260036040832001546040519182526020820152600160408201527f65e6f89b6907d6277741ee4ccbc4ae260163a17f16bbb55b5344dff064867c4060603392a280f35b8161033891610d07565b61010157805f6102d1565b6040513d84823e3d90fd5b5050fd5b3382526001602052604082205460101c6001600160a01b031690813b1561034e57829160448392604051948593849263b3950de160e01b845282600485015260248401525af18015610343576103ff575b5050338152600160205260016040822001543382526001602052600360408320015460405191825260208201528160408201527f65e6f89b6907d6277741ee4ccbc4ae260163a17f16bbb55b5344dff064867c4060603392a280f35b8161040991610d07565b61010157805f6103a3565b6104359060203d60201161043a575b61042d8183610d07565b810190610d29565b610267565b503d610423565b6040513d85823e3d90fd5b634e487b7160e01b84526011600452602484fd5b6314c8a87d60e21b8252600482fd5b90506020813d60201161049d575b8161048a60209383610d07565b8101031261049957515f6101c6565b5f80fd5b3d915061047d565b631f5ce9cb60e11b8152600490fd5b634e487b7160e01b82526011600452602482fd5b630464f1e760e01b8152600490fd5b630772c8fb60e41b8152600490fd5b5034610101578060031936011261010157546040516001600160a01b039091168152602090f35b5034610101576020366003190112610101576004356001600160a01b038116908190036100ff578160409160c09360a0845161054881610cd7565b82815282602082015282868201528260608201528260808201520152815260016020522060405161057881610cd7565b81549160ff8316151592838352602083019060ff8160081c1615158252604084019060018060a01b039060101c1681526001830154916060850192835260a060036002860154956080880196875201549501948552604051958652511515602086015260018060a01b0390511660408501525160608401525160808301525160a0820152f35b5034610101578060031936011261010157610617610d41565b80546001600160a01b03198116825581906001600160a01b03167f8be0079c531659141344cd1fd0a4f28419497f9722a3daafe3b4186f6b6457e08280a380f35b503461010157602036600319011261010157338152600160205260ff6040822054166104d757338152600160205260ff604082205460081c16156104c85733808252600160208181526040808520805460ff191684179055838552828252808520805461ff001916905592845252812054819060101c6001600160a01b0316803b15610765578180916024604051809481936335adcb4b60e11b835260043560048401525af1801561034357610750575b5033815260016020526001604082200154604051908152600160208201527f2fd83d5e9f5d240bed47a97a24cf354e4047e25edc2da27b01fd95e5e8a0c9a560403392a280f35b8161075a91610d07565b61010157805f610709565b50fd5b5034610101576040366003190112610101576024356004358015610b8a578115610b7b57604051636eb1769f60e11b81523360048201523060248201526001600160a01b037f0000000000000000000000000000000000000000000000000000000000000000169290602081604481875afa8015610afe5783918691610b46575b5010610b3757338452600160205260ff604085205460081c16610b28578354604051906112d2808301916001600160a01b03169067ffffffffffffffff831184841017610b145791839161010093610d6884398782526001600160a01b037f0000000000000000000000000000000000000000000000000000000000000000811660208401527f0000000000000000000000000000000000000000000000000000000000000000811660408401527f0000000000000000000000000000000000000000000000000000000000000000811660608401527f00000000000000000000000000000000000000000000000000000000000000001660808301523360a083015260c082015260e0810186905203019085f08015610b09576040516323b872dd60e01b81523360048201526001600160a01b03919091166024820181905260448201849052936020908290606490829089905af18015610afe57610ae1575b50823b15610add5760405163297d6f9560e21b81528490818160048183895af1801561034357610ac8575b5050620151808102908104620151800361044c57420180421161044c5762278d004201804211610ab457600390604051926109af84610cd7565b86845260208401600181526040850187815260608601918783526080870193845260a08701948552338a52600160205260408a209651151560ff8019895416911617875551151561ff0087549160081b169061ff0019161786555185549062010000600160b01b039060101b169062010000600160b01b0319161785555160018501555160028401555191015533835260016020526040832061010061ff00198254161790553383526001602052600260408420015433845260016020526003604085200154916040519384526020840152604083015260608201527fcbf7f12430748a9ce19a04244dced1bbd45a1aa459228ae4c730c8678db613f760803392a280f35b634e487b7160e01b85526011600452602485fd5b81610ad291610d07565b610add57835f610975565b8380fd5b610af99060203d60201161043a5761042d8183610d07565b61094a565b6040513d87823e3d90fd5b6040513d86823e3d90fd5b634e487b7160e01b88526041600452602488fd5b631eec212960e21b8452600484fd5b6314c8a87d60e21b8452600484fd5b9150506020813d602011610b73575b81610b6260209383610d07565b81010312610499578290515f6107e9565b3d9150610b55565b630c6bd28d60e41b8352600483fd5b63a9f00b1d60e01b8352600483fd5b90503461049957602036600319011261049957335f52600160205260ff60405f205416610cc857335f52600160205260ff60405f205460081c1615610cb957335f526001602052600260405f2001544210610caa57335f908152600160208190526040909120805461ffff19169091179081905560101c6001600160a01b0316803b1561049957816024815f8094632e1a7d4d60e01b835260043560048401525af18015610c9f57610c8c575b50338152600160205260016040822001546040519081528160208201527f2fd83d5e9f5d240bed47a97a24cf354e4047e25edc2da27b01fd95e5e8a0c9a560403392a280f35b610c9891505f90610d07565b5f5f610c46565b6040513d5f823e3d90fd5b636e92bb9560e11b5f5260045ffd5b630464f1e760e01b5f5260045ffd5b630772c8fb60e41b5f5260045ffd5b60c0810190811067ffffffffffffffff821117610cf357604052565b634e487b7160e01b5f52604160045260245ffd5b90601f8019910116810190811067ffffffffffffffff821117610cf357604052565b90816020910312610499575180151581036104995790565b5f546001600160a01b03163303610d5457565b63118cdaa760e01b5f523360045260245ffdfe6101a0806040523461028457610100816112d280380380916100218285610288565b83398101031261028457602081604461003a5f946102bf565b916100468482016102bf565b92610053604083016102bf565b91610060606082016102bf565b61006c608083016102bf565b9061007960a084016102bf565b9460e061008860c086016102bf565b9401516001600160a01b03958616608081905298861660a05290851660c05290841660e0529216610100819052610120939093523361014052610160526101805260405163095ea7b360e01b81526004810191909152841960248201529384928391905af1801561025c57610267575b5060805160e05160405163095ea7b360e01b81526001600160a01b0391821660048201525f19602482015291602091839160449183915f91165af1801561025c5761022d575b604051610fe690816102ec8239608051818181610117015281816105230152818161098f01528181610da20152610f35015260a05181818160c0015281816104c80152610934015260c051818181610266015281816106f301528181610b5f0152610dc7015260e0518181816101680152818161055b015281816109c70152610ee801526101005181818161043c0152610e6a0152610120518181816106940152610ad10152610140518181816076015281816103cc0152818161047f01526108ee0152610160518181816101c3015281816105b50152610a2101526101805181818161022a01526103ff0152f35b61024e9060203d602011610255575b6102468183610288565b8101906102d3565b505f61013e565b503d61023c565b6040513d5f823e3d90fd5b61027f9060203d602011610255576102468183610288565b6100f8565b5f80fd5b601f909101601f19168101906001600160401b038211908210176102ab57604052565b634e487b7160e01b5f52604160045260245ffd5b51906001600160a01b038216820361028457565b9081602091031261028457518015158103610284579056fe6080806040526004361015610012575f80fd5b5f905f3560e01c9081632e1a7d4d146108db575080636b5b96961461046b5780637a56a50a14610426578063a5f5be54146103b95763b3950de114610055575f80fd5b346102d35760403660031901126102d357600435908115918215036102d3577f00000000000000000000000000000000000000000000000000000000000000006001600160a01b031633036103aa576040516370a0823160e01b8152306004820152916020836024817f00000000000000000000000000000000000000000000000000000000000000006001600160a01b03165afa9283156102d6578293610374575b5061010861016393835490610d51565b604051631a4ca37b60e21b81527f00000000000000000000000000000000000000000000000000000000000000006001600160a01b031660048201819052602482019290925230604482015293602090859081906064820190565b0381867f00000000000000000000000000000000000000000000000000000000000000006001600160a01b03165af1938415610369578394610331575b50600a840293808504600a148115171561031d5760405163a9059cbb60e01b81527f00000000000000000000000000000000000000000000000000000000000000006001600160a01b031660048201526064909504602486018190529394859490926020908490604490829089905af19081156103125761025c93610257926102e5575b5061024e7f0000000000000000000000000000000000000000000000000000000000000000610ee6565b60243592610d51565b610d76565b906102645750f35b7f00000000000000000000000000000000000000000000000000000000000000006001600160a01b031690813b156102e1578291602483926040519485938492630852cd8d60e31b845260048401525af180156102d6576102c25750f35b816102cc91610d1b565b6102d35780f35b80fd5b6040513d84823e3d90fd5b5050fd5b6103069060203d60201161030b575b6102fe8183610d1b565b810190610d5e565b610224565b503d6102f4565b6040513d87823e3d90fd5b634e487b7160e01b84526011600452602484fd5b9093506020813d602011610361575b8161034d60209383610d1b565b8101031261035d5751925f6101a0565b5f80fd5b3d9150610340565b6040513d85823e3d90fd5b92506020833d6020116103a2575b8161038f60209383610d1b565b8101031261035d579151916101086100f8565b3d9150610382565b6327be294d60e01b8152600490fd5b50346102d357806003193601126102d3577f00000000000000000000000000000000000000000000000000000000000000006001600160a01b031633036103aa576104237f0000000000000000000000000000000000000000000000000000000000000000610ee6565b80f35b50346102d357806003193601126102d3576040517f00000000000000000000000000000000000000000000000000000000000000006001600160a01b03168152602090f35b503461035d57602036600319011261035d577f00000000000000000000000000000000000000000000000000000000000000006001600160a01b031633036108cc576040516370a0823160e01b81523060048201526020816024817f00000000000000000000000000000000000000000000000000000000000000006001600160a01b03165afa8015610776575f90610898575b61050c91505f5490610d51565b604051631a4ca37b60e21b81526001600160a01b037f000000000000000000000000000000000000000000000000000000000000000081166004830181905260248301939093523060448301527f0000000000000000000000000000000000000000000000000000000000000000166020826064815f855af1918215610776575f92610864575b50600a8202828104600a14831517156108505760405163a9059cbb60e01b81527f00000000000000000000000000000000000000000000000000000000000000006001600160a01b0316600482015260649091046024820181905291906020816044815f895af19384156107765761025760209461061c935f97610835575b5060043592610d51565b50606460405180948193631a4ca37b60e21b8352876004840152811960248401523060448401525af1801561077657610806575b506040516370a0823160e01b815230600482015290602082602481845afa918215610776575f926107d0575b5060405163a9059cbb60e01b81526001600160a01b037f000000000000000000000000000000000000000000000000000000000000000016600482015260248101929092526020908290815f81604481015b03925af18015610776576107b3575b506040516370a0823160e01b81523060048201527f00000000000000000000000000000000000000000000000000000000000000006001600160a01b031690602081602481855afa908115610776575f91610781575b50813b1561035d575f91602483926040519485938492630852cd8d60e31b845260048401525af1801561077657610768575080f35b61077491505f90610d1b565b005b6040513d5f823e3d90fd5b90506020813d6020116107ab575b8161079c60209383610d1b565b8101031261035d57515f610733565b3d915061078f565b6107cb9060203d60201161030b576102fe8183610d1b565b6106dd565b91506020823d6020116107fe575b816107eb60209383610d1b565b8101031261035d579051906106ce61067c565b3d91506107de565b6020813d60201161082d575b8161081f60209383610d1b565b8101031261035d5751610650565b3d9150610812565b61084b90873d891161030b576102fe8183610d1b565b610612565b634e487b7160e01b5f52601160045260245ffd5b9091506020813d602011610890575b8161088060209383610d1b565b8101031261035d5751905f610593565b3d9150610873565b506020813d6020116108c4575b816108b260209383610d1b565b8101031261035d5761050c90516104ff565b3d91506108a5565b6327be294d60e01b5f5260045ffd5b3461035d57602036600319011261035d577f00000000000000000000000000000000000000000000000000000000000000006001600160a01b031633036108cc576370a0823160e01b81523060048201526020816024817f00000000000000000000000000000000000000000000000000000000000000006001600160a01b03165afa8015610776575f90610ce7575b61097891505f5490610d51565b604051631a4ca37b60e21b81526001600160a01b037f000000000000000000000000000000000000000000000000000000000000000081166004830181905260248301939093523060448301527f0000000000000000000000000000000000000000000000000000000000000000166020826064815f855af1918215610776575f92610cb3575b50600a8202828104600a14831517156108505760405163a9059cbb60e01b81527f00000000000000000000000000000000000000000000000000000000000000006001600160a01b0316600482015260649091046024820181905291906020816044815f895af193841561077657610257602094610a87935f97610835575060043592610d51565b50606460405180948193631a4ca37b60e21b8352876004840152811960248401523060448401525af1801561077657610c84575b506040516370a0823160e01b81523060048201527f000000000000000000000000000000000000000000000000000000000000000091602082602481845afa918215610776575f92610c4e575b5060405163a9059cbb60e01b81526001600160a01b038416600482015260248101929092526020908290815f81604481015b03925af1801561077657610c31575b506040516370a0823160e01b81523060048201527f00000000000000000000000000000000000000000000000000000000000000006001600160a01b031691602082602481865afa918215610776575f92610bfb575b5060405163a9059cbb60e01b81526001600160a01b0390911660048201526024810191909152906020908290815f81604481015b03925af1801561077657610be357005b6107749060203d60201161030b576102fe8183610d1b565b91506020823d602011610c29575b81610c1660209383610d1b565b8101031261035d57905190610bd3610b9f565b3d9150610c09565b610c499060203d60201161030b576102fe8183610d1b565b610b49565b91506020823d602011610c7c575b81610c6960209383610d1b565b8101031261035d57905190610b3a610b08565b3d9150610c5c565b6020813d602011610cab575b81610c9d60209383610d1b565b8101031261035d5751610abb565b3d9150610c90565b9091506020813d602011610cdf575b81610ccf60209383610d1b565b8101031261035d575190836109ff565b3d9150610cc2565b506020813d602011610d13575b81610d0160209383610d1b565b8101031261035d57610978905161096b565b3d9150610cf4565b90601f8019910116810190811067ffffffffffffffff821117610d3d57604052565b634e487b7160e01b5f52604160045260245ffd5b9190820391821161085057565b9081602091031261035d5751801515810361035d5790565b91906040519260e0840184811067ffffffffffffffff821117610d3d5760409081526001600160a01b037f0000000000000000000000000000000000000000000000000000000000000000811686527f000000000000000000000000000000000000000000000000000000000000000081166020808801918252610bb88885019081523060608a0190815260808a0196875260a08a018881525f60c08c0181815297516304e45aaf60e01b81529b51871660048d01529451861660248c0152915162ffffff1660448b015251841660648a015294516084890152935160a48801529151811660c4870152859160e4918391907f0000000000000000000000000000000000000000000000000000000000000000165af1928315610776575f93610eb2575b508210610ea357565b6399b5940560e01b5f5260045ffd5b9092506020813d602011610ede575b81610ece60209383610d1b565b8101031261035d5751915f610e9a565b3d9150610ec1565b7f00000000000000000000000000000000000000000000000000000000000000006001600160a01b0316803b1561035d5760405163617ba03760e01b81525f8160848183809660018060a01b037f00000000000000000000000000000000000000000000000000000000000000001660048401528860248401523060448401528160648401525af1801561077657610f9d575b508054918201809211610f895755565b634e487b7160e01b81526011600452602490fd5b610fa991505f90610d1b565b5f5f610f7956fea2646970667358221220c2014855f9f706bf9f1e9ccc4c78c23ba3bdc01901e9a822ed8d35703672f8a064736f6c634300081c0033a26469706673582212208ab65d098d1b33b0d6ed72da803d99b75d6526a415738c3ee4d9ec626639973064736f6c634300081c0033","linkReferences":{}},"methodIdentifiers":{"deposit(uint256)":"b6b55f25","earlyWithdraw(uint256)":"6b5b9696","getDepositPlan(address)":"8b752fdb","owner()":"8da5cb5b","renounceOwnership()":"715018a6","startDeposit(uint256,uint256)":"5c85ef65","transferOwnership(address)":"f2fde38b","withdraw(uint256)":"2e1a7d4d"},"id":8}