{"abi":[{"type":"constructor","inputs":[{"name":"_usdcAddress","type":"address","internalType":"address"},{"name":"_aUsdcAddress","type":"address","internalType":"address"},{"name":"_saveTokenAddress","type":"address","internalType":"address"},{"name":"_aavePoolAddress","type":"address","internalType":"address"},{"name":"_swapRouter02Address","type":"address","internalType":"address"},{"name":"_depositor","type":"address","internalType":"address"},{"name":"_projectOwner","type":"address","internalType":"address"},{"name":"_amountPerDeposit","type":"uint256","internalType":"uint256"}],"stateMutability":"nonpayable"},{"type":"function","name":"deposit","inputs":[{"name":"isDepositOnTime","type":"bool","internalType":"bool"},{"name":"minAmountOut","type":"uint256","internalType":"uint256"}],"outputs":[],"stateMutability":"nonpayable"},{"type":"function","name":"earlyWithdraw","inputs":[{"name":"minAmountOut","type":"uint256","internalType":"uint256"}],"outputs":[],"stateMutability":"nonpayable"},{"type":"function","name":"firstDeposit","inputs":[],"outputs":[],"stateMutability":"nonpayable"},{"type":"function","name":"i_swapRouter02","inputs":[],"outputs":[{"name":"","type":"address","internalType":"contract ISwapRouter02"}],"stateMutability":"view"},{"type":"function","name":"withdraw","inputs":[{"name":"minAmountOut","type":"uint256","internalType":"uint256"}],"outputs":[],"stateMutability":"nonpayable"},{"type":"error","name":"DepositContract__InsufficientAmountOut","inputs":[]},{"type":"error","name":"DepositContract__OnlySaveFi","inputs":[]}],"bytecode":{"object":"0x6101a0806040523461028457610100816112d280380380916100218285610288565b83398101031261028457602081604461003a5f946102bf565b916100468482016102bf565b92610053604083016102bf565b91610060606082016102bf565b61006c608083016102bf565b9061007960a084016102bf565b9460e061008860c086016102bf565b9401516001600160a01b03958616608081905298861660a05290851660c05290841660e0529216610100819052610120939093523361014052610160526101805260405163095ea7b360e01b81526004810191909152841960248201529384928391905af1801561025c57610267575b5060805160e05160405163095ea7b360e01b81526001600160a01b0391821660048201525f19602482015291602091839160449183915f91165af1801561025c5761022d575b604051610fe690816102ec8239608051818181610117015281816105230152818161098f01528181610da20152610f35015260a05181818160c0015281816104c80152610934015260c051818181610266015281816106f301528181610b5f0152610dc7015260e0518181816101680152818161055b015281816109c70152610ee801526101005181818161043c0152610e6a0152610120518181816106940152610ad10152610140518181816076015281816103cc0152818161047f01526108ee0152610160518181816101c3015281816105b50152610a2101526101805181818161022a01526103ff0152f35b61024e9060203d602011610255575b6102468183610288565b8101906102d3565b505f61013e565b503d61023c565b6040513d5f823e3d90fd5b61027f9060203d602011610255576102468183610288565b6100f8565b5f80fd5b601f909101601f19168101906001600160401b038211908210176102ab57604052565b634e487b7160e01b5f52604160045260245ffd5b51906001600160a01b038216820361028457565b9081602091031261028457518015158103610284579056fe6080806040526004361015610012575f80fd5b5f905f3560e01c9081632e1a7d4d146108db575080636b5b96961461046b5780637a56a50a14610426578063a5f5be54146103b95763b3950de114610055575f80fd5b346102d35760403660031901126102d357600435908115918215036102d3577f00000000000000000000000000000000000000000000000000000000000000006001600160a01b031633036103aa576040516370a0823160e01b8152306004820152916020836024817f00000000000000000000000000000000000000000000000000000000000000006001600160a01b03165afa9283156102d6578293610374575b5061010861016393835490610d51565b604051631a4ca37b60e21b81527f00000000000000000000000000000000000000000000000000000000000000006001600160a01b031660048201819052602482019290925230604482015293602090859081906064820190565b0381867f00000000000000000000000000000000000000000000000000000000000000006001600160a01b03165af1938415610369578394610331575b50600a840293808504600a148115171561031d5760405163a9059cbb60e01b81527f00000000000000000000000000000000000000000000000000000000000000006001600160a01b031660048201526064909504602486018190529394859490926020908490604490829089905af19081156103125761025c93610257926102e5575b5061024e7f0000000000000000000000000000000000000000000000000000000000000000610ee6565b60243592610d51565b610d76565b906102645750f35b7f00000000000000000000000000000000000000000000000000000000000000006001600160a01b031690813b156102e1578291602483926040519485938492630852cd8d60e31b845260048401525af180156102d6576102c25750f35b816102cc91610d1b565b6102d35780f35b80fd5b6040513d84823e3d90fd5b5050fd5b6103069060203d60201161030b575b6102fe8183610d1b565b810190610d5e565b610224565b503d6102f4565b6040513d87823e3d90fd5b634e487b7160e01b84526011600452602484fd5b9093506020813d602011610361575b8161034d60209383610d1b565b8101031261035d5751925f6101a0565b5f80fd5b3d9150610340565b6040513d85823e3d90fd5b92506020833d6020116103a2575b8161038f60209383610d1b565b8101031261035d579151916101086100f8565b3d9150610382565b6327be294d60e01b8152600490fd5b50346102d357806003193601126102d3577f00000000000000000000000000000000000000000000000000000000000000006001600160a01b031633036103aa576104237f0000000000000000000000000000000000000000000000000000000000000000610ee6565b80f35b50346102d357806003193601126102d3576040517f00000000000000000000000000000000000000000000000000000000000000006001600160a01b03168152602090f35b503461035d57602036600319011261035d577f00000000000000000000000000000000000000000000000000000000000000006001600160a01b031633036108cc576040516370a0823160e01b81523060048201526020816024817f00000000000000000000000000000000000000000000000000000000000000006001600160a01b03165afa8015610776575f90610898575b61050c91505f5490610d51565b604051631a4ca37b60e21b81526001600160a01b037f000000000000000000000000000000000000000000000000000000000000000081166004830181905260248301939093523060448301527f0000000000000000000000000000000000000000000000000000000000000000166020826064815f855af1918215610776575f92610864575b50600a8202828104600a14831517156108505760405163a9059cbb60e01b81527f00000000000000000000000000000000000000000000000000000000000000006001600160a01b0316600482015260649091046024820181905291906020816044815f895af19384156107765761025760209461061c935f97610835575b5060043592610d51565b50606460405180948193631a4ca37b60e21b8352876004840152811960248401523060448401525af1801561077657610806575b506040516370a0823160e01b815230600482015290602082602481845afa918215610776575f926107d0575b5060405163a9059cbb60e01b81526001600160a01b037f000000000000000000000000000000000000000000000000000000000000000016600482015260248101929092526020908290815f81604481015b03925af18015610776576107b3575b506040516370a0823160e01b81523060048201527f00000000000000000000000000000000000000000000000000000000000000006001600160a01b031690602081602481855afa908115610776575f91610781575b50813b1561035d575f91602483926040519485938492630852cd8d60e31b845260048401525af1801561077657610768575080f35b61077491505f90610d1b565b005b6040513d5f823e3d90fd5b90506020813d6020116107ab575b8161079c60209383610d1b565b8101031261035d57515f610733565b3d915061078f565b6107cb9060203d60201161030b576102fe8183610d1b565b6106dd565b91506020823d6020116107fe575b816107eb60209383610d1b565b8101031261035d579051906106ce61067c565b3d91506107de565b6020813d60201161082d575b8161081f60209383610d1b565b8101031261035d5751610650565b3d9150610812565b61084b90873d891161030b576102fe8183610d1b565b610612565b634e487b7160e01b5f52601160045260245ffd5b9091506020813d602011610890575b8161088060209383610d1b565b8101031261035d5751905f610593565b3d9150610873565b506020813d6020116108c4575b816108b260209383610d1b565b8101031261035d5761050c90516104ff565b3d91506108a5565b6327be294d60e01b5f5260045ffd5b3461035d57602036600319011261035d577f00000000000000000000000000000000000000000000000000000000000000006001600160a01b031633036108cc576370a0823160e01b81523060048201526020816024817f00000000000000000000000000000000000000000000000000000000000000006001600160a01b03165afa8015610776575f90610ce7575b61097891505f5490610d51565b604051631a4ca37b60e21b81526001600160a01b037f000000000000000000000000000000000000000000000000000000000000000081166004830181905260248301939093523060448301527f0000000000000000000000000000000000000000000000000000000000000000166020826064815f855af1918215610776575f92610cb3575b50600a8202828104600a14831517156108505760405163a9059cbb60e01b81527f00000000000000000000000000000000000000000000000000000000000000006001600160a01b0316600482015260649091046024820181905291906020816044815f895af193841561077657610257602094610a87935f97610835575060043592610d51565b50606460405180948193631a4ca37b60e21b8352876004840152811960248401523060448401525af1801561077657610c84575b506040516370a0823160e01b81523060048201527f000000000000000000000000000000000000000000000000000000000000000091602082602481845afa918215610776575f92610c4e575b5060405163a9059cbb60e01b81526001600160a01b038416600482015260248101929092526020908290815f81604481015b03925af1801561077657610c31575b506040516370a0823160e01b81523060048201527f00000000000000000000000000000000000000000000000000000000000000006001600160a01b031691602082602481865afa918215610776575f92610bfb575b5060405163a9059cbb60e01b81526001600160a01b0390911660048201526024810191909152906020908290815f81604481015b03925af1801561077657610be357005b6107749060203d60201161030b576102fe8183610d1b565b91506020823d602011610c29575b81610c1660209383610d1b565b8101031261035d57905190610bd3610b9f565b3d9150610c09565b610c499060203d60201161030b576102fe8183610d1b565b610b49565b91506020823d602011610c7c575b81610c6960209383610d1b565b8101031261035d57905190610b3a610b08565b3d9150610c5c565b6020813d602011610cab575b81610c9d60209383610d1b565b8101031261035d5751610abb565b3d9150610c90565b9091506020813d602011610cdf575b81610ccf60209383610d1b565b8101031261035d575190836109ff565b3d9150610cc2565b506020813d602011610d13575b81610d0160209383610d1b565b8101031261035d57610978905161096b565b3d9150610cf4565b90601f8019910116810190811067ffffffffffffffff821117610d3d57604052565b634e487b7160e01b5f52604160045260245ffd5b9190820391821161085057565b9081602091031261035d5751801515810361035d5790565b91906040519260e0840184811067ffffffffffffffff821117610d3d5760409081526001600160a01b037f0000000000000000000000000000000000000000000000000000000000000000811686527f000000000000000000000000000000000000000000000000000000000000000081166020808801918252610bb88885019081523060608a0190815260808a0196875260a08a018881525f60c08c0181815297516304e45aaf60e01b81529b51871660048d01529451861660248c0152915162ffffff1660448b015251841660648a015294516084890152935160a48801529151811660c4870152859160e4918391907f0000000000000000000000000000000000000000000000000000000000000000165af1928315610776575f93610eb2575b508210610ea357565b6399b5940560e01b5f5260045ffd5b9092506020813d602011610ede575b81610ece60209383610d1b565b8101031261035d5751915f610e9a565b3d9150610ec1565b7f00000000000000000000000000000000000000000000000000000000000000006001600160a01b0316803b1561035d5760405163617ba03760e01b81525f8160848183809660018060a01b037f00000000000000000000000000000000000000000000000000000000000000001660048401528860248401523060448401528160648401525af1801561077657610f9d575b508054918201809211610f895755565b634e487b7160e01b81526011600452602490fd5b610fa991505f90610d1b565b5f5f610f7956fea2646970667358221220c2014855f9f706bf9f1e9ccc4c78c23ba3bdc01901e9a822ed8d35703672f8a064736f6c634300081c0033","linkReferences":{}},"methodIdentifiers":{"deposit(bool,uint256)":"b3950de1","earlyWithdraw(uint256)":"6b5b9696","firstDeposit()":"a5f5be54","i_swapRouter02()":"7a56a50a","withdraw(uint256)":"2e1a7d4d"},"id":7}